{
  "_format": "hh-sol-artifact-1",
  "contractName": "HttpRequestOracle",
  "sourceName": "contracts/pull/HttpRequestOracle.sol",
  "abi": [
    {
      "anonymous": false,
      "inputs": [
        {
          "indexed": true,
          "internalType": "address",
          "name": "previousOwner",
          "type": "address"
        },
        {
          "indexed": true,
          "internalType": "address",
          "name": "newOwner",
          "type": "address"
        }
      ],
      "name": "OwnershipTransferred",
      "type": "event"
    },
    {
      "anonymous": false,
      "inputs": [
        {
          "indexed": true,
          "internalType": "bytes32",
          "name": "id",
          "type": "bytes32"
        }
      ],
      "name": "RequestCancelled",
      "type": "event"
    },
    {
      "anonymous": false,
      "inputs": [
        {
          "indexed": true,
          "internalType": "bytes32",
          "name": "id",
          "type": "bytes32"
        }
      ],
      "name": "RequestFulfilled",
      "type": "event"
    },
    {
      "anonymous": false,
      "inputs": [
        {
          "indexed": true,
          "internalType": "bytes32",
          "name": "id",
          "type": "bytes32"
        },
        {
          "indexed": false,
          "internalType": "bytes",
          "name": "data",
          "type": "bytes"
        }
      ],
      "name": "RequestSent",
      "type": "event"
    },
    {
      "inputs": [
        {
          "internalType": "address",
          "name": "reporterAddress",
          "type": "address"
        }
      ],
      "name": "getReporter",
      "outputs": [
        {
          "internalType": "bool",
          "name": "",
          "type": "bool"
        }
      ],
      "stateMutability": "view",
      "type": "function"
    },
    {
      "inputs": [],
      "name": "owner",
      "outputs": [
        {
          "internalType": "address",
          "name": "",
          "type": "address"
        }
      ],
      "stateMutability": "view",
      "type": "function"
    },
    {
      "inputs": [],
      "name": "renounceOwnership",
      "outputs": [],
      "stateMutability": "nonpayable",
      "type": "function"
    },
    {
      "inputs": [
        {
          "components": [
            {
              "internalType": "bytes32",
              "name": "id",
              "type": "bytes32"
            },
            {
              "internalType": "address",
              "name": "callbackAddress",
              "type": "address"
            },
            {
              "internalType": "bytes4",
              "name": "callbackFunctionId",
              "type": "bytes4"
            },
            {
              "components": [
                {
                  "internalType": "bytes",
                  "name": "buf",
                  "type": "bytes"
                },
                {
                  "internalType": "uint256",
                  "name": "capacity",
                  "type": "uint256"
                }
              ],
              "internalType": "struct BufferBase.buffer",
              "name": "requestData",
              "type": "tuple"
            }
          ],
          "internalType": "struct RequestLib.Request",
          "name": "req",
          "type": "tuple"
        }
      ],
      "name": "sendRequest",
      "outputs": [
        {
          "internalType": "bytes32",
          "name": "",
          "type": "bytes32"
        }
      ],
      "stateMutability": "nonpayable",
      "type": "function"
    },
    {
      "inputs": [
        {
          "internalType": "address",
          "name": "newOwner",
          "type": "address"
        }
      ],
      "name": "transferOwnership",
      "outputs": [],
      "stateMutability": "nonpayable",
      "type": "function"
    },
    {
      "inputs": [
        {
          "internalType": "address",
          "name": "reporterAddress",
          "type": "address"
        },
        {
          "internalType": "bool",
          "name": "isReporter",
          "type": "bool"
        }
      ],
      "name": "updateReporter",
      "outputs": [],
      "stateMutability": "nonpayable",
      "type": "function"
    }
  ],
  "bytecode": "0x608060405234801561001057600080fd5b5061001a3361001f565b61006f565b600080546001600160a01b038381166001600160a01b0319831681178455604051919092169283917f8be0079c531659141344cd1fd0a4f28419497f9722a3daafe3b4186f6b6457e09190a35050565b6106228061007e6000396000f3fe608060405234801561001057600080fd5b50600436106100625760003560e01c80631ec6e24f14610067578063215d35cc1461007c578063715018a6146100a2578063732995af146100aa5780638da5cb5b146100e6578063f2fde38b14610101575b600080fd5b61007a610075366004610340565b610114565b005b61008f61008a36600461040f565b610147565b6040519081526020015b60405180910390f35b61007a6101e8565b6100d66100b8366004610540565b6001600160a01b031660009081526001602052604090205460ff1690565b6040519015158152602001610099565b6000546040516001600160a01b039091168152602001610099565b61007a61010f366004610540565b6101fc565b61011c61027a565b6001600160a01b03919091166000908152600160205260409020805460ff1916911515919091179055565b805160408083015160608401515191516000938493631ec6e24f60e01b93610174939091906024016105a8565b60408051601f198184030181529181526020820180516001600160e01b03166001600160e01b031990941693909317909252845191519092507fafb0931d973a0c62c636ef23ddd0b58b890a9bf7c77bca04c2ffbb30f61a8e86906101da9084906105d9565b60405180910390a250505190565b6101f061027a565b6101fa60006102d4565b565b61020461027a565b6001600160a01b03811661026e5760405162461bcd60e51b815260206004820152602660248201527f4f776e61626c653a206e6577206f776e657220697320746865207a65726f206160448201526564647265737360d01b60648201526084015b60405180910390fd5b610277816102d4565b50565b6000546001600160a01b031633146101fa5760405162461bcd60e51b815260206004820181905260248201527f4f776e61626c653a2063616c6c6572206973206e6f7420746865206f776e65726044820152606401610265565b600080546001600160a01b038381166001600160a01b0319831681178455604051919092169283917f8be0079c531659141344cd1fd0a4f28419497f9722a3daafe3b4186f6b6457e09190a35050565b80356001600160a01b038116811461033b57600080fd5b919050565b6000806040838503121561035357600080fd5b61035c83610324565b91506020830135801515811461037157600080fd5b809150509250929050565b634e487b7160e01b600052604160045260246000fd5b6040516080810167ffffffffffffffff811182821017156103b5576103b561037c565b60405290565b6040805190810167ffffffffffffffff811182821017156103b5576103b561037c565b604051601f8201601f1916810167ffffffffffffffff811182821017156104075761040761037c565b604052919050565b6000602080838503121561042257600080fd5b823567ffffffffffffffff8082111561043a57600080fd5b908401906080828703121561044e57600080fd5b610456610392565b82358152610465848401610324565b8185015260408301356001600160e01b03198116811461048457600080fd5b604082015260608301358281111561049b57600080fd5b9290920191604083880312156104b057600080fd5b6104b86103bb565b8335838111156104c757600080fd5b8401601f810189136104d857600080fd5b8035848111156104ea576104ea61037c565b6104fc601f8201601f191688016103de565b9450808552898782840101111561051257600080fd5b8087830188870137600090850187015250918252918301359281019290925260608101919091529392505050565b60006020828403121561055257600080fd5b61055b82610324565b9392505050565b6000815180845260005b818110156105885760208185018101518683018201520161056c565b506000602082860101526020601f19601f83011685010191505092915050565b83815263ffffffff60e01b831660208201526060604082015260006105d06060830184610562565b95945050505050565b60208152600061055b602083018461056256fea2646970667358221220bec162703ff5bd6cc76af0119918d370189e8b4f5b78cb5ef1adf8f91ef55e1664736f6c63430008110033",
  "linkReferences": {},
  "deployedLinkReferences": {}
}