{
  "_format": "hh-sol-artifact-1",
  "contractName": "PriceOracle",
  "sourceName": "contracts/push/PriceOracle.sol",
  "abi": [
    {
      "inputs": [],
      "name": "OnlyReporter",
      "type": "error"
    },
    {
      "anonymous": false,
      "inputs": [
        {
          "indexed": true,
          "internalType": "address",
          "name": "previousOwner",
          "type": "address"
        },
        {
          "indexed": true,
          "internalType": "address",
          "name": "newOwner",
          "type": "address"
        }
      ],
      "name": "OwnershipTransferred",
      "type": "event"
    },
    {
      "anonymous": false,
      "inputs": [
        {
          "indexed": true,
          "internalType": "address",
          "name": "reporter",
          "type": "address"
        },
        {
          "indexed": false,
          "internalType": "string",
          "name": "payload",
          "type": "string"
        }
      ],
      "name": "PredictedSignalUpdate",
      "type": "event"
    },
    {
      "inputs": [],
      "name": "getData",
      "outputs": [
        {
          "internalType": "bool",
          "name": "results",
          "type": "bool"
        },
        {
          "internalType": "uint256",
          "name": "date",
          "type": "uint256"
        },
        {
          "internalType": "string",
          "name": "payload",
          "type": "string"
        }
      ],
      "stateMutability": "view",
      "type": "function"
    },
    {
      "inputs": [
        {
          "internalType": "address",
          "name": "reporterAddress",
          "type": "address"
        }
      ],
      "name": "getReporter",
      "outputs": [
        {
          "internalType": "bool",
          "name": "",
          "type": "bool"
        }
      ],
      "stateMutability": "view",
      "type": "function"
    },
    {
      "inputs": [],
      "name": "owner",
      "outputs": [
        {
          "internalType": "address",
          "name": "",
          "type": "address"
        }
      ],
      "stateMutability": "view",
      "type": "function"
    },
    {
      "inputs": [],
      "name": "renounceOwnership",
      "outputs": [],
      "stateMutability": "nonpayable",
      "type": "function"
    },
    {
      "inputs": [
        {
          "internalType": "address",
          "name": "newOwner",
          "type": "address"
        }
      ],
      "name": "transferOwnership",
      "outputs": [],
      "stateMutability": "nonpayable",
      "type": "function"
    },
    {
      "inputs": [
        {
          "internalType": "string",
          "name": "payload",
          "type": "string"
        }
      ],
      "name": "updateData",
      "outputs": [],
      "stateMutability": "nonpayable",
      "type": "function"
    },
    {
      "inputs": [
        {
          "internalType": "address",
          "name": "reporterAddress",
          "type": "address"
        },
        {
          "internalType": "bool",
          "name": "isReporter",
          "type": "bool"
        }
      ],
      "name": "updateReporter",
      "outputs": [],
      "stateMutability": "nonpayable",
      "type": "function"
    }
  ],
  "bytecode": "0x608060405234801561001057600080fd5b5061001a3361001f565b61006f565b600080546001600160a01b038381166001600160a01b0319831681178455604051919092169283917f8be0079c531659141344cd1fd0a4f28419497f9722a3daafe3b4186f6b6457e09190a35050565b6107528061007e6000396000f3fe608060405234801561001057600080fd5b506004361061007d5760003560e01c8063715018a61161005b578063715018a6146100ca578063732995af146100d25780638da5cb5b1461010e578063f2fde38b1461012957600080fd5b80631ec6e24f146100825780633bc5de301461009757806368446ead146100b7575b600080fd5b61009561009036600461042b565b61013c565b005b61009f61016f565b6040516100ae939291906104ad565b60405180910390f35b6100956100c53660046104ed565b61023d565b6100956102d3565b6100fe6100e036600461059e565b6001600160a01b031660009081526001602052604090205460ff1690565b60405190151581526020016100ae565b6000546040516001600160a01b0390911681526020016100ae565b61009561013736600461059e565b6102e7565b610144610365565b6001600160a01b03919091166000908152600160205260409020805460ff1916911515919091179055565b60008060606002600001546000036101995750506040805160208101909152600080825292839250565b600160026000015460026001018080546101b2906105c0565b80601f01602080910402602001604051908101604052809291908181526020018280546101de906105c0565b801561022b5780601f106102005761010080835404028352916020019161022b565b820191906000526020600020905b81548152906001019060200180831161020e57829003601f168201915b50505050509050925092509250909192565b3360009081526001602052604090205460ff1661026d576040516387567bd960e01b815260040160405180910390fd5b604080518082019091524280825260208201839052600290815560036102938482610649565b50506040513391507f928a4b6db3ea82fb1c545d72785510aa52b35eca7456ec5b2446339ecfa4a2d2906102c8908490610709565b60405180910390a250565b6102db610365565b6102e560006103bf565b565b6102ef610365565b6001600160a01b0381166103595760405162461bcd60e51b815260206004820152602660248201527f4f776e61626c653a206e6577206f776e657220697320746865207a65726f206160448201526564647265737360d01b60648201526084015b60405180910390fd5b610362816103bf565b50565b6000546001600160a01b031633146102e55760405162461bcd60e51b815260206004820181905260248201527f4f776e61626c653a2063616c6c6572206973206e6f7420746865206f776e65726044820152606401610350565b600080546001600160a01b038381166001600160a01b0319831681178455604051919092169283917f8be0079c531659141344cd1fd0a4f28419497f9722a3daafe3b4186f6b6457e09190a35050565b80356001600160a01b038116811461042657600080fd5b919050565b6000806040838503121561043e57600080fd5b6104478361040f565b91506020830135801515811461045c57600080fd5b809150509250929050565b6000815180845260005b8181101561048d57602081850181015186830182015201610471565b506000602082860101526020601f19601f83011685010191505092915050565b83151581528260208201526060604082015260006104ce6060830184610467565b95945050505050565b634e487b7160e01b600052604160045260246000fd5b6000602082840312156104ff57600080fd5b813567ffffffffffffffff8082111561051757600080fd5b818401915084601f83011261052b57600080fd5b81358181111561053d5761053d6104d7565b604051601f8201601f19908116603f01168101908382118183101715610565576105656104d7565b8160405282815287602084870101111561057e57600080fd5b826020860160208301376000928101602001929092525095945050505050565b6000602082840312156105b057600080fd5b6105b98261040f565b9392505050565b600181811c908216806105d457607f821691505b6020821081036105f457634e487b7160e01b600052602260045260246000fd5b50919050565b601f82111561064457600081815260208120601f850160051c810160208610156106215750805b601f850160051c820191505b818110156106405782815560010161062d565b5050505b505050565b815167ffffffffffffffff811115610663576106636104d7565b6106778161067184546105c0565b846105fa565b602080601f8311600181146106ac57600084156106945750858301515b600019600386901b1c1916600185901b178555610640565b600085815260208120601f198616915b828110156106db578886015182559484019460019091019084016106bc565b50858210156106f95787850151600019600388901b60f8161c191681555b5050505050600190811b01905550565b6020815260006105b9602083018461046756fea26469706673582212201758a81d8130c20105883164cb880ef86990ca4f3492bc0ce1f0debd1ea18a5764736f6c63430008110033",
  "linkReferences": {},
  "deployedLinkReferences": {}
}