{
  "_format": "hh-sol-artifact-1",
  "contractName": "HttpRequestConsumerWithHeader",
  "sourceName": "contracts/pull/HttpRequestWithHeader.sol",
  "abi": [
    {
      "inputs": [
        {
          "internalType": "address",
          "name": "_oracle",
          "type": "address"
        }
      ],
      "stateMutability": "nonpayable",
      "type": "constructor"
    },
    {
      "anonymous": false,
      "inputs": [
        {
          "indexed": true,
          "internalType": "bytes32",
          "name": "requestId",
          "type": "bytes32"
        },
        {
          "indexed": false,
          "internalType": "string",
          "name": "prediction_signal",
          "type": "string"
        }
      ],
      "name": "RequestExchangeRate",
      "type": "event"
    },
    {
      "inputs": [
        {
          "internalType": "bytes32",
          "name": "_requestId",
          "type": "bytes32"
        },
        {
          "internalType": "string",
          "name": "_prediction_signal",
          "type": "string"
        }
      ],
      "name": "_requestedDataCompleted",
      "outputs": [],
      "stateMutability": "nonpayable",
      "type": "function"
    }
  ],
  "bytecode": "0x608060405234801561001057600080fd5b506040516103be3803806103be83398101604081905261002f91610054565b600080546001600160a01b0319166001600160a01b0392909216919091179055610084565b60006020828403121561006657600080fd5b81516001600160a01b038116811461007d57600080fd5b9392505050565b61032b806100936000396000f3fe608060405234801561001057600080fd5b506004361061002b5760003560e01c80634cd581ed14610030575b600080fd5b61004361003e3660046100a4565b610045565b005b817ff29235782b6dafca64e492ae4ebc3534f115394e4e462365c8ff66ec198b414482604051610075919061015f565b60405180910390a260016100898282610235565b505050565b634e487b7160e01b600052604160045260246000fd5b600080604083850312156100b757600080fd5b82359150602083013567ffffffffffffffff808211156100d657600080fd5b818501915085601f8301126100ea57600080fd5b8135818111156100fc576100fc61008e565b604051601f8201601f19908116603f011681019083821181831017156101245761012461008e565b8160405282815288602084870101111561013d57600080fd5b8260208601602083013760006020848301015280955050505050509250929050565b600060208083528351808285015260005b8181101561018c57858101830151858201604001528201610170565b506000604082860101526040601f19601f8301168501019250505092915050565b600181811c908216806101c157607f821691505b6020821081036101e157634e487b7160e01b600052602260045260246000fd5b50919050565b601f82111561008957600081815260208120601f850160051c8101602086101561020e5750805b601f850160051c820191505b8181101561022d5782815560010161021a565b505050505050565b815167ffffffffffffffff81111561024f5761024f61008e565b6102638161025d84546101ad565b846101e7565b602080601f83116001811461029857600084156102805750858301515b600019600386901b1c1916600185901b17855561022d565b600085815260208120601f198616915b828110156102c7578886015182559484019460019091019084016102a8565b50858210156102e55787850151600019600388901b60f8161c191681555b5050505050600190811b0190555056fea264697066735822122090556279bdaf6e294b50a2acb91abd20b0c8605a3f9d456972e6944e5621974a64736f6c63430008110033",
  "linkReferences": {},
  "deployedLinkReferences": {}
}