{
  "_format": "hh-sol-artifact-1",
  "contractName": "PriceConsumer",
  "sourceName": "contracts/push/PriceConsumer.sol",
  "abi": [
    {
      "inputs": [
        {
          "internalType": "address",
          "name": "_oracle",
          "type": "address"
        }
      ],
      "stateMutability": "nonpayable",
      "type": "constructor"
    },
    {
      "inputs": [],
      "name": "CouldNotGetPrice",
      "type": "error"
    },
    {
      "inputs": [],
      "name": "StalePrice",
      "type": "error"
    },
    {
      "inputs": [],
      "name": "getPredictedSignal",
      "outputs": [
        {
          "internalType": "string",
          "name": "",
          "type": "string"
        }
      ],
      "stateMutability": "view",
      "type": "function"
    },
    {
      "inputs": [],
      "name": "oracle",
      "outputs": [
        {
          "internalType": "contract IOracle",
          "name": "",
          "type": "address"
        }
      ],
      "stateMutability": "view",
      "type": "function"
    }
  ],
  "bytecode": "0x608060405234801561001057600080fd5b5060405161038838038061038883398101604081905261002f91610054565b600080546001600160a01b0319166001600160a01b0392909216919091179055610084565b60006020828403121561006657600080fd5b81516001600160a01b038116811461007d57600080fd5b9392505050565b6102f5806100936000396000f3fe608060405234801561001057600080fd5b50600436106100365760003560e01c80637b6dca6c1461003b5780637dc0d1d014610059575b600080fd5b610043610084565b604051610050919061017e565b60405180910390f35b60005461006c906001600160a01b031681565b6040516001600160a01b039091168152602001610050565b606060008060008060009054906101000a90046001600160a01b03166001600160a01b0316633bc5de306040518163ffffffff1660e01b8152600401600060405180830381865afa1580156100dd573d6000803e3d6000fd5b505050506040513d6000823e601f3d908101601f1916820160405261010591908101906101c7565b925092509250826101295760405163b98a06ab60e01b815260040160405180910390fd5b60b46101358342610298565b1061015357604051630cd5fa0760e11b815260040160405180910390fd5b9392505050565b60005b8381101561017557818101518382015260200161015d565b50506000910152565b602081526000825180602084015261019d81604085016020870161015a565b601f01601f19169190910160400192915050565b634e487b7160e01b600052604160045260246000fd5b6000806000606084860312156101dc57600080fd5b835180151581146101ec57600080fd5b60208501516040860151919450925067ffffffffffffffff8082111561021157600080fd5b818601915086601f83011261022557600080fd5b815181811115610237576102376101b1565b604051601f8201601f19908116603f0116810190838211818310171561025f5761025f6101b1565b8160405282815289602084870101111561027857600080fd5b61028983602083016020880161015a565b80955050505050509250925092565b818103818111156102b957634e487b7160e01b600052601160045260246000fd5b9291505056fea2646970667358221220bf6e96cb2e5b76aa708fdf225766446a93062c24ce9e19bc476f061b2d0fe00364736f6c63430008110033",
  "linkReferences": {},
  "deployedLinkReferences": {}
}