{"contracts/pull/HttpRequestWithHeader.sol":{"HttpRequestConsumerWithHeader":{"abi":[{"inputs":[{"internalType":"address","name":"_oracle","type":"address"}],"stateMutability":"nonpayable","type":"constructor"},{"anonymous":false,"inputs":[{"indexed":true,"internalType":"bytes32","name":"requestId","type":"bytes32"},{"indexed":false,"internalType":"string","name":"prediction_signal","type":"string"}],"name":"RequestExchangeRate","type":"event"},{"inputs":[{"internalType":"bytes32","name":"_requestId","type":"bytes32"},{"internalType":"string","name":"_prediction_signal","type":"string"}],"name":"_requestedDataCompleted","outputs":[],"stateMutability":"nonpayable","type":"function"}],"devdoc":{"kind":"dev","methods":{},"version":1},"evm":{"bytecode":{"linkReferences":{},"object":"608060405234801561001057600080fd5b506040516103be3803806103be83398101604081905261002f91610054565b600080546001600160a01b0319166001600160a01b0392909216919091179055610084565b60006020828403121561006657600080fd5b81516001600160a01b038116811461007d57600080fd5b9392505050565b61032b806100936000396000f3fe608060405234801561001057600080fd5b506004361061002b5760003560e01c80634cd581ed14610030575b600080fd5b61004361003e3660046100a4565b610045565b005b817ff29235782b6dafca64e492ae4ebc3534f115394e4e462365c8ff66ec198b414482604051610075919061015f565b60405180910390a260016100898282610235565b505050565b634e487b7160e01b600052604160045260246000fd5b600080604083850312156100b757600080fd5b82359150602083013567ffffffffffffffff808211156100d657600080fd5b818501915085601f8301126100ea57600080fd5b8135818111156100fc576100fc61008e565b604051601f8201601f19908116603f011681019083821181831017156101245761012461008e565b8160405282815288602084870101111561013d57600080fd5b8260208601602083013760006020848301015280955050505050509250929050565b600060208083528351808285015260005b8181101561018c57858101830151858201604001528201610170565b506000604082860101526040601f19601f8301168501019250505092915050565b600181811c908216806101c157607f821691505b6020821081036101e157634e487b7160e01b600052602260045260246000fd5b50919050565b601f82111561008957600081815260208120601f850160051c8101602086101561020e5750805b601f850160051c820191505b8181101561022d5782815560010161021a565b505050505050565b815167ffffffffffffffff81111561024f5761024f61008e565b6102638161025d84546101ad565b846101e7565b602080601f83116001811461029857600084156102805750858301515b600019600386901b1c1916600185901b17855561022d565b600085815260208120601f198616915b828110156102c7578886015182559484019460019091019084016102a8565b50858210156102e55787850151600019600388901b60f8161c191681555b5050505050600190811b0190555056fea2646970667358221220bec4243e05a99ab5952af16559c7f88ae632daa6d804cd0156eabe37d9a8b74564736f6c63430008110033","opcodes":"PUSH1 0x80 PUSH1 0x40 MSTORE CALLVALUE DUP1 ISZERO PUSH2 0x10 JUMPI PUSH1 0x0 DUP1 REVERT JUMPDEST POP PUSH1 0x40 MLOAD PUSH2 0x3BE CODESIZE SUB DUP1 PUSH2 0x3BE DUP4 CODECOPY DUP2 ADD PUSH1 0x40 DUP2 SWAP1 MSTORE PUSH2 0x2F SWAP2 PUSH2 0x54 JUMP JUMPDEST PUSH1 0x0 DUP1 SLOAD PUSH1 0x1 PUSH1 0x1 PUSH1 0xA0 SHL SUB NOT AND PUSH1 0x1 PUSH1 0x1 PUSH1 0xA0 SHL SUB SWAP3 SWAP1 SWAP3 AND SWAP2 SWAP1 SWAP2 OR SWAP1 SSTORE PUSH2 0x84 JUMP JUMPDEST PUSH1 0x0 PUSH1 0x20 DUP3 DUP5 SUB SLT ISZERO PUSH2 0x66 JUMPI PUSH1 0x0 DUP1 REVERT JUMPDEST DUP2 MLOAD PUSH1 0x1 PUSH1 0x1 PUSH1 0xA0 SHL SUB DUP2 AND DUP2 EQ PUSH2 0x7D JUMPI PUSH1 0x0 DUP1 REVERT JUMPDEST SWAP4 SWAP3 POP POP POP JUMP JUMPDEST PUSH2 0x32B DUP1 PUSH2 0x93 PUSH1 0x0 CODECOPY PUSH1 0x0 RETURN INVALID PUSH1 0x80 PUSH1 0x40 MSTORE CALLVALUE DUP1 ISZERO PUSH2 0x10 JUMPI PUSH1 0x0 DUP1 REVERT JUMPDEST POP PUSH1 0x4 CALLDATASIZE LT PUSH2 0x2B JUMPI PUSH1 0x0 CALLDATALOAD PUSH1 0xE0 SHR DUP1 PUSH4 0x4CD581ED EQ PUSH2 0x30 JUMPI JUMPDEST PUSH1 0x0 DUP1 REVERT JUMPDEST PUSH2 0x43 PUSH2 0x3E CALLDATASIZE PUSH1 0x4 PUSH2 0xA4 JUMP JUMPDEST PUSH2 0x45 JUMP JUMPDEST STOP JUMPDEST DUP2 PUSH32 0xF29235782B6DAFCA64E492AE4EBC3534F115394E4E462365C8FF66EC198B4144 DUP3 PUSH1 0x40 MLOAD PUSH2 0x75 SWAP2 SWAP1 PUSH2 0x15F JUMP JUMPDEST PUSH1 0x40 MLOAD DUP1 SWAP2 SUB SWAP1 LOG2 PUSH1 0x1 PUSH2 0x89 DUP3 DUP3 PUSH2 0x235 JUMP JUMPDEST POP POP POP JUMP JUMPDEST PUSH4 0x4E487B71 PUSH1 0xE0 SHL PUSH1 0x0 MSTORE PUSH1 0x41 PUSH1 0x4 MSTORE PUSH1 0x24 PUSH1 0x0 REVERT JUMPDEST PUSH1 0x0 DUP1 PUSH1 0x40 DUP4 DUP6 SUB SLT ISZERO PUSH2 0xB7 JUMPI PUSH1 0x0 DUP1 REVERT JUMPDEST DUP3 CALLDATALOAD SWAP2 POP PUSH1 0x20 DUP4 ADD CALLDATALOAD PUSH8 0xFFFFFFFFFFFFFFFF DUP1 DUP3 GT ISZERO PUSH2 0xD6 JUMPI PUSH1 0x0 DUP1 REVERT JUMPDEST DUP2 DUP6 ADD SWAP2 POP DUP6 PUSH1 0x1F DUP4 ADD SLT PUSH2 0xEA JUMPI PUSH1 0x0 DUP1 REVERT JUMPDEST DUP2 CALLDATALOAD DUP2 DUP2 GT ISZERO PUSH2 0xFC JUMPI PUSH2 0xFC PUSH2 0x8E JUMP JUMPDEST PUSH1 0x40 MLOAD PUSH1 0x1F DUP3 ADD PUSH1 0x1F NOT SWAP1 DUP2 AND PUSH1 0x3F ADD AND DUP2 ADD SWAP1 DUP4 DUP3 GT DUP2 DUP4 LT OR ISZERO PUSH2 0x124 JUMPI PUSH2 0x124 PUSH2 0x8E JUMP JUMPDEST DUP2 PUSH1 0x40 MSTORE DUP3 DUP2 MSTORE DUP9 PUSH1 0x20 DUP5 DUP8 ADD ADD GT ISZERO PUSH2 0x13D JUMPI PUSH1 0x0 DUP1 REVERT JUMPDEST DUP3 PUSH1 0x20 DUP7 ADD PUSH1 0x20 DUP4 ADD CALLDATACOPY PUSH1 0x0 PUSH1 0x20 DUP5 DUP4 ADD ADD MSTORE DUP1 SWAP6 POP POP POP POP POP POP SWAP3 POP SWAP3 SWAP1 POP JUMP JUMPDEST PUSH1 0x0 PUSH1 0x20 DUP1 DUP4 MSTORE DUP4 MLOAD DUP1 DUP3 DUP6 ADD MSTORE PUSH1 0x0 JUMPDEST DUP2 DUP2 LT ISZERO PUSH2 0x18C JUMPI DUP6 DUP2 ADD DUP4 ADD MLOAD DUP6 DUP3 ADD PUSH1 0x40 ADD MSTORE DUP3 ADD PUSH2 0x170 JUMP JUMPDEST POP PUSH1 0x0 PUSH1 0x40 DUP3 DUP7 ADD ADD MSTORE PUSH1 0x40 PUSH1 0x1F NOT PUSH1 0x1F DUP4 ADD AND DUP6 ADD ADD SWAP3 POP POP POP SWAP3 SWAP2 POP POP JUMP JUMPDEST PUSH1 0x1 DUP2 DUP2 SHR SWAP1 DUP3 AND DUP1 PUSH2 0x1C1 JUMPI PUSH1 0x7F DUP3 AND SWAP2 POP JUMPDEST PUSH1 0x20 DUP3 LT DUP2 SUB PUSH2 0x1E1 JUMPI PUSH4 0x4E487B71 PUSH1 0xE0 SHL PUSH1 0x0 MSTORE PUSH1 0x22 PUSH1 0x4 MSTORE PUSH1 0x24 PUSH1 0x0 REVERT JUMPDEST POP SWAP2 SWAP1 POP JUMP JUMPDEST PUSH1 0x1F DUP3 GT ISZERO PUSH2 0x89 JUMPI PUSH1 0x0 DUP2 DUP2 MSTORE PUSH1 0x20 DUP2 KECCAK256 PUSH1 0x1F DUP6 ADD PUSH1 0x5 SHR DUP2 ADD PUSH1 0x20 DUP7 LT ISZERO PUSH2 0x20E JUMPI POP DUP1 JUMPDEST PUSH1 0x1F DUP6 ADD PUSH1 0x5 SHR DUP3 ADD SWAP2 POP JUMPDEST DUP2 DUP2 LT ISZERO PUSH2 0x22D JUMPI DUP3 DUP2 SSTORE PUSH1 0x1 ADD PUSH2 0x21A JUMP JUMPDEST POP POP POP POP POP POP JUMP JUMPDEST DUP2 MLOAD PUSH8 0xFFFFFFFFFFFFFFFF DUP2 GT ISZERO PUSH2 0x24F JUMPI PUSH2 0x24F PUSH2 0x8E JUMP JUMPDEST PUSH2 0x263 DUP2 PUSH2 0x25D DUP5 SLOAD PUSH2 0x1AD JUMP JUMPDEST DUP5 PUSH2 0x1E7 JUMP JUMPDEST PUSH1 0x20 DUP1 PUSH1 0x1F DUP4 GT PUSH1 0x1 DUP2 EQ PUSH2 0x298 JUMPI PUSH1 0x0 DUP5 ISZERO PUSH2 0x280 JUMPI POP DUP6 DUP4 ADD MLOAD JUMPDEST PUSH1 0x0 NOT PUSH1 0x3 DUP7 SWAP1 SHL SHR NOT AND PUSH1 0x1 DUP6 SWAP1 SHL OR DUP6 SSTORE PUSH2 0x22D JUMP JUMPDEST PUSH1 0x0 DUP6 DUP2 MSTORE PUSH1 0x20 DUP2 KECCAK256 PUSH1 0x1F NOT DUP7 AND SWAP2 JUMPDEST DUP3 DUP2 LT ISZERO PUSH2 0x2C7 JUMPI DUP9 DUP7 ADD MLOAD DUP3 SSTORE SWAP5 DUP5 ADD SWAP5 PUSH1 0x1 SWAP1 SWAP2 ADD SWAP1 DUP5 ADD PUSH2 0x2A8 JUMP JUMPDEST POP DUP6 DUP3 LT ISZERO PUSH2 0x2E5 JUMPI DUP8 DUP6 ADD MLOAD PUSH1 0x0 NOT PUSH1 0x3 DUP9 SWAP1 SHL PUSH1 0xF8 AND SHR NOT AND DUP2 SSTORE JUMPDEST POP POP POP POP POP PUSH1 0x1 SWAP1 DUP2 SHL ADD SWAP1 SSTORE POP JUMP INVALID LOG2 PUSH5 0x6970667358 0x22 SLT KECCAK256 0xBE 0xC4 0x24 RETURNDATACOPY SDIV 0xA9 SWAP11 0xB5 SWAP6 0x2A CALL PUSH6 0x59C7F88AE632 0xDA 0xA6 0xD8 DIV 0xCD ADD JUMP 0xEA 0xBE CALLDATACOPY 0xD9 0xA8 0xB7 GASLIMIT PUSH5 0x736F6C6343 STOP ADDMOD GT STOP CALLER "},"gasEstimates":{"creation":{"codeDepositCost":"162200","executionCost":"infinite","totalCost":"infinite"},"external":{"_requestedDataCompleted(bytes32,string)":"infinite"},"internal":{"requestPredictionSignal()":"infinite"}},"methodIdentifiers":{"_requestedDataCompleted(bytes32,string)":"4cd581ed"}},"storageLayout":{"storage":[{"astId":1386,"contract":"contracts/pull/HttpRequestWithHeader.sol:HttpRequestConsumerWithHeader","label":"httpOracle","offset":0,"slot":"0","type":"t_contract(HttpRequestOracle)1373"},{"astId":1388,"contract":"contracts/pull/HttpRequestWithHeader.sol:HttpRequestConsumerWithHeader","label":"prediction_signal","offset":0,"slot":"1","type":"t_string_storage"}],"types":{"t_contract(HttpRequestOracle)1373":{"encoding":"inplace","label":"contract HttpRequestOracle","numberOfBytes":"20"},"t_string_storage":{"encoding":"bytes","label":"string","numberOfBytes":"32"}}},"userdoc":{"kind":"user","methods":{},"version":1}}}}