{
  "address": "0x7084EEd9Cd54F366f0Ffd3e89c3e12f0d203a6d0",
  "abi": [
    {
      "inputs": [
        {
          "internalType": "address",
          "name": "_pool",
          "type": "address"
        },
        {
          "internalType": "address",
          "name": "_swapRouter",
          "type": "address"
        },
        {
          "internalType": "address",
          "name": "_oracle",
          "type": "address"
        },
        {
          "internalType": "address",
          "name": "_usdc",
          "type": "address"
        },
        {
          "internalType": "address",
          "name": "_wbtc",
          "type": "address"
        },
        {
          "internalType": "address",
          "name": "_operator",
          "type": "address"
        }
      ],
      "stateMutability": "nonpayable",
      "type": "constructor"
    },
    {
      "anonymous": false,
      "inputs": [
        {
          "indexed": true,
          "internalType": "address",
          "name": "owner",
          "type": "address"
        },
        {
          "indexed": true,
          "internalType": "address",
          "name": "spender",
          "type": "address"
        },
        {
          "indexed": false,
          "internalType": "uint256",
          "name": "value",
          "type": "uint256"
        }
      ],
      "name": "Approval",
      "type": "event"
    },
    {
      "anonymous": false,
      "inputs": [
        {
          "indexed": true,
          "internalType": "address",
          "name": "user",
          "type": "address"
        },
        {
          "indexed": false,
          "internalType": "uint256",
          "name": "amount",
          "type": "uint256"
        }
      ],
      "name": "Deposit",
      "type": "event"
    },
    {
      "anonymous": false,
      "inputs": [
        {
          "indexed": true,
          "internalType": "address",
          "name": "previousOwner",
          "type": "address"
        },
        {
          "indexed": true,
          "internalType": "address",
          "name": "newOwner",
          "type": "address"
        }
      ],
      "name": "OwnershipTransferred",
      "type": "event"
    },
    {
      "anonymous": false,
      "inputs": [
        {
          "indexed": false,
          "internalType": "uint256",
          "name": "id",
          "type": "uint256"
        }
      ],
      "name": "Snapshot",
      "type": "event"
    },
    {
      "anonymous": false,
      "inputs": [
        {
          "indexed": true,
          "internalType": "address",
          "name": "caller",
          "type": "address"
        },
        {
          "indexed": false,
          "internalType": "uint256",
          "name": "amountIn",
          "type": "uint256"
        },
        {
          "indexed": false,
          "internalType": "uint256",
          "name": "amountOut",
          "type": "uint256"
        },
        {
          "indexed": false,
          "internalType": "bool",
          "name": "fromUSDCtoWBTC",
          "type": "bool"
        }
      ],
      "name": "SwapExecuted",
      "type": "event"
    },
    {
      "anonymous": false,
      "inputs": [
        {
          "indexed": true,
          "internalType": "address",
          "name": "from",
          "type": "address"
        },
        {
          "indexed": true,
          "internalType": "address",
          "name": "to",
          "type": "address"
        },
        {
          "indexed": false,
          "internalType": "uint256",
          "name": "value",
          "type": "uint256"
        }
      ],
      "name": "Transfer",
      "type": "event"
    },
    {
      "anonymous": false,
      "inputs": [
        {
          "indexed": true,
          "internalType": "address",
          "name": "user",
          "type": "address"
        },
        {
          "indexed": false,
          "internalType": "uint256",
          "name": "amount",
          "type": "uint256"
        }
      ],
      "name": "Withdraw",
      "type": "event"
    },
    {
      "inputs": [
        {
          "internalType": "address",
          "name": "owner",
          "type": "address"
        },
        {
          "internalType": "address",
          "name": "spender",
          "type": "address"
        }
      ],
      "name": "allowance",
      "outputs": [
        {
          "internalType": "uint256",
          "name": "",
          "type": "uint256"
        }
      ],
      "stateMutability": "view",
      "type": "function"
    },
    {
      "inputs": [
        {
          "internalType": "address",
          "name": "spender",
          "type": "address"
        },
        {
          "internalType": "uint256",
          "name": "amount",
          "type": "uint256"
        }
      ],
      "name": "approve",
      "outputs": [
        {
          "internalType": "bool",
          "name": "",
          "type": "bool"
        }
      ],
      "stateMutability": "nonpayable",
      "type": "function"
    },
    {
      "inputs": [
        {
          "internalType": "address",
          "name": "account",
          "type": "address"
        }
      ],
      "name": "balanceOf",
      "outputs": [
        {
          "internalType": "uint256",
          "name": "",
          "type": "uint256"
        }
      ],
      "stateMutability": "view",
      "type": "function"
    },
    {
      "inputs": [
        {
          "internalType": "address",
          "name": "account",
          "type": "address"
        },
        {
          "internalType": "uint256",
          "name": "snapshotId",
          "type": "uint256"
        }
      ],
      "name": "balanceOfAt",
      "outputs": [
        {
          "internalType": "uint256",
          "name": "",
          "type": "uint256"
        }
      ],
      "stateMutability": "view",
      "type": "function"
    },
    {
      "inputs": [
        {
          "internalType": "address",
          "name": "_operator",
          "type": "address"
        }
      ],
      "name": "changeOperator",
      "outputs": [],
      "stateMutability": "nonpayable",
      "type": "function"
    },
    {
      "inputs": [
        {
          "internalType": "uint256",
          "name": "_protocolFee",
          "type": "uint256"
        }
      ],
      "name": "changeProtocolFee",
      "outputs": [],
      "stateMutability": "nonpayable",
      "type": "function"
    },
    {
      "inputs": [],
      "name": "decimals",
      "outputs": [
        {
          "internalType": "uint8",
          "name": "",
          "type": "uint8"
        }
      ],
      "stateMutability": "view",
      "type": "function"
    },
    {
      "inputs": [
        {
          "internalType": "address",
          "name": "spender",
          "type": "address"
        },
        {
          "internalType": "uint256",
          "name": "subtractedValue",
          "type": "uint256"
        }
      ],
      "name": "decreaseAllowance",
      "outputs": [
        {
          "internalType": "bool",
          "name": "",
          "type": "bool"
        }
      ],
      "stateMutability": "nonpayable",
      "type": "function"
    },
    {
      "inputs": [
        {
          "internalType": "uint256",
          "name": "amount",
          "type": "uint256"
        }
      ],
      "name": "deposit",
      "outputs": [],
      "stateMutability": "payable",
      "type": "function"
    },
    {
      "inputs": [],
      "name": "devPercentage",
      "outputs": [
        {
          "internalType": "uint256",
          "name": "",
          "type": "uint256"
        }
      ],
      "stateMutability": "view",
      "type": "function"
    },
    {
      "inputs": [
        {
          "internalType": "bool",
          "name": "fromUSDCtoWBTC",
          "type": "bool"
        }
      ],
      "name": "executeSwap",
      "outputs": [],
      "stateMutability": "nonpayable",
      "type": "function"
    },
    {
      "inputs": [],
      "name": "getStatus",
      "outputs": [
        {
          "internalType": "uint8",
          "name": "",
          "type": "uint8"
        }
      ],
      "stateMutability": "view",
      "type": "function"
    },
    {
      "inputs": [
        {
          "internalType": "address",
          "name": "spender",
          "type": "address"
        },
        {
          "internalType": "uint256",
          "name": "addedValue",
          "type": "uint256"
        }
      ],
      "name": "increaseAllowance",
      "outputs": [
        {
          "internalType": "bool",
          "name": "",
          "type": "bool"
        }
      ],
      "stateMutability": "nonpayable",
      "type": "function"
    },
    {
      "inputs": [],
      "name": "name",
      "outputs": [
        {
          "internalType": "string",
          "name": "",
          "type": "string"
        }
      ],
      "stateMutability": "view",
      "type": "function"
    },
    {
      "inputs": [],
      "name": "operator",
      "outputs": [
        {
          "internalType": "address",
          "name": "",
          "type": "address"
        }
      ],
      "stateMutability": "view",
      "type": "function"
    },
    {
      "inputs": [],
      "name": "oracle",
      "outputs": [
        {
          "internalType": "contract IOracle",
          "name": "",
          "type": "address"
        }
      ],
      "stateMutability": "view",
      "type": "function"
    },
    {
      "inputs": [],
      "name": "owner",
      "outputs": [
        {
          "internalType": "address",
          "name": "",
          "type": "address"
        }
      ],
      "stateMutability": "view",
      "type": "function"
    },
    {
      "inputs": [],
      "name": "pool",
      "outputs": [
        {
          "internalType": "contract IUniswapV3Pool",
          "name": "",
          "type": "address"
        }
      ],
      "stateMutability": "view",
      "type": "function"
    },
    {
      "inputs": [],
      "name": "poolFee",
      "outputs": [
        {
          "internalType": "uint24",
          "name": "",
          "type": "uint24"
        }
      ],
      "stateMutability": "view",
      "type": "function"
    },
    {
      "inputs": [],
      "name": "protocolFee",
      "outputs": [
        {
          "internalType": "uint256",
          "name": "",
          "type": "uint256"
        }
      ],
      "stateMutability": "view",
      "type": "function"
    },
    {
      "inputs": [],
      "name": "renounceOwnership",
      "outputs": [],
      "stateMutability": "nonpayable",
      "type": "function"
    },
    {
      "inputs": [],
      "name": "swapRouter",
      "outputs": [
        {
          "internalType": "contract ISwapRouter",
          "name": "",
          "type": "address"
        }
      ],
      "stateMutability": "view",
      "type": "function"
    },
    {
      "inputs": [],
      "name": "symbol",
      "outputs": [
        {
          "internalType": "string",
          "name": "",
          "type": "string"
        }
      ],
      "stateMutability": "view",
      "type": "function"
    },
    {
      "inputs": [],
      "name": "totalSupply",
      "outputs": [
        {
          "internalType": "uint256",
          "name": "",
          "type": "uint256"
        }
      ],
      "stateMutability": "view",
      "type": "function"
    },
    {
      "inputs": [
        {
          "internalType": "uint256",
          "name": "snapshotId",
          "type": "uint256"
        }
      ],
      "name": "totalSupplyAt",
      "outputs": [
        {
          "internalType": "uint256",
          "name": "",
          "type": "uint256"
        }
      ],
      "stateMutability": "view",
      "type": "function"
    },
    {
      "inputs": [
        {
          "internalType": "address",
          "name": "to",
          "type": "address"
        },
        {
          "internalType": "uint256",
          "name": "amount",
          "type": "uint256"
        }
      ],
      "name": "transfer",
      "outputs": [
        {
          "internalType": "bool",
          "name": "",
          "type": "bool"
        }
      ],
      "stateMutability": "nonpayable",
      "type": "function"
    },
    {
      "inputs": [
        {
          "internalType": "address",
          "name": "from",
          "type": "address"
        },
        {
          "internalType": "address",
          "name": "to",
          "type": "address"
        },
        {
          "internalType": "uint256",
          "name": "amount",
          "type": "uint256"
        }
      ],
      "name": "transferFrom",
      "outputs": [
        {
          "internalType": "bool",
          "name": "",
          "type": "bool"
        }
      ],
      "stateMutability": "nonpayable",
      "type": "function"
    },
    {
      "inputs": [
        {
          "internalType": "address",
          "name": "newOwner",
          "type": "address"
        }
      ],
      "name": "transferOwnership",
      "outputs": [],
      "stateMutability": "nonpayable",
      "type": "function"
    },
    {
      "inputs": [],
      "name": "usdc",
      "outputs": [
        {
          "internalType": "contract IERC20",
          "name": "",
          "type": "address"
        }
      ],
      "stateMutability": "view",
      "type": "function"
    },
    {
      "inputs": [],
      "name": "wbtc",
      "outputs": [
        {
          "internalType": "contract IERC20",
          "name": "",
          "type": "address"
        }
      ],
      "stateMutability": "view",
      "type": "function"
    },
    {
      "inputs": [
        {
          "internalType": "uint256",
          "name": "shares",
          "type": "uint256"
        }
      ],
      "name": "withdraw",
      "outputs": [],
      "stateMutability": "nonpayable",
      "type": "function"
    }
  ],
  "transactionHash": "0xf5f1bbf462e5ef36905e59f21980e463a4dfc8cd0df9c00d4b147f196830a290",
  "args": [
    "0x847b64f9d3a95e977d157866447a5c0a5dfa0ee5",
    "0xe592427a0aece92de3edee1f18e0157c05861564",
    "0xBf5ec3570909D09D817F2AA4FD3Ad607090AaD46",
    "0x2791bca1f2de4661ed88a30c99a7a9449aa84174",
    "0x1bfd67037b42cf73acf2047067bd4f2c47d9bfd6",
    "0x58dF4b1E490d0380Eb273f87D6f4eD8d4EA0E1A6"
  ],
  "numDeployments": 5,
  "solcInputHash": "ae967dd0fb69fb44483211b96df8cf5f",
  "bytecode": "0x61012060405267016345785d8a0000600b556064600c55600d805462ffffff1916610bb81790553480156200003357600080fd5b50604051620029f6380380620029f683398101604081905262000056916200018a565b6040518060400160405280600b81526020016a04e696d62757320323030360ac1b8152506040518060400160405280600781526020016604e494d323030360cc1b8152508160039081620000ab9190620002b0565b506004620000ba8282620002b0565b505050620000d7620000d16200011760201b60201c565b6200011b565b6001600160a01b0395861660805293851660a05291841660c052831660e052821661010052600a80546001600160a01b031916919092161790556200037c565b3390565b600980546001600160a01b038381166001600160a01b0319831681179093556040519116919082907f8be0079c531659141344cd1fd0a4f28419497f9722a3daafe3b4186f6b6457e090600090a35050565b80516001600160a01b03811681146200018557600080fd5b919050565b60008060008060008060c08789031215620001a457600080fd5b620001af876200016d565b9550620001bf602088016200016d565b9450620001cf604088016200016d565b9350620001df606088016200016d565b9250620001ef608088016200016d565b9150620001ff60a088016200016d565b90509295509295509295565b634e487b7160e01b600052604160045260246000fd5b600181811c908216806200023657607f821691505b6020821081036200025757634e487b7160e01b600052602260045260246000fd5b50919050565b601f821115620002ab57600081815260208120601f850160051c81016020861015620002865750805b601f850160051c820191505b81811015620002a75782815560010162000292565b5050505b505050565b81516001600160401b03811115620002cc57620002cc6200020b565b620002e481620002dd845462000221565b846200025d565b602080601f8311600181146200031c5760008415620003035750858301515b600019600386901b1c1916600185901b178555620002a7565b600085815260208120601f198616915b828110156200034d578886015182559484019460019091019084016200032c565b50858210156200036c5787850151600019600388901b60f8161c191681555b5050505050600190811b01905550565b60805160a05160c05160e051610100516125866200047060003960008181610389015281816107e40152818161088401528181610ce401528181610e2c01528181610ee801528181610f6d01526114510152600081816103bd01528181610911015281816109b101528181610b7e01528181610c3a01528181610cbf01528181610f92015281816111b2015281816113a9015261142c0152600081816104b10152818161073701528181610a0201526112d90152600081816105a101528181610c0801528181610d4a01528181610eb601528181610ff80152818161137a01526114b70152600061029c01526125866000f3fe6080604052600436106101d85760003560e01c806361bbcc4a11610102578063a9059cbb11610095578063c3a4382411610064578063c3a43824146105c3578063dd62ed3e146105d9578063f2fde38b146105f9578063fe6874751461061957600080fd5b8063a9059cbb14610546578063b0e21e8a14610566578063b6b55f251461057c578063c31c9c071461058f57600080fd5b80638da5cb5b116100d15780638da5cb5b146104d357806395d89b41146104f1578063981b24d014610506578063a457c2d71461052657600080fd5b806361bbcc4a1461043457806370a0823114610454578063715018a61461048a5780637dc0d1d01461049f57600080fd5b80632e1a7d4d1161017a5780633e413bee116101495780633e413bee146103ab5780634e69d560146103df5780634ee2cd7e146103f4578063570ca7351461041457600080fd5b80632e1a7d4d14610315578063313ce5671461033557806339509351146103575780633cdc53891461037757600080fd5b8063095ea7b3116101b6578063095ea7b31461025a57806316f0115b1461028a57806318160ddd146102d657806323b872dd146102f557600080fd5b806306394c9b146101dd57806306fdde03146101ff578063089fe6aa1461022a575b600080fd5b3480156101e957600080fd5b506101fd6101f836600461225e565b610639565b005b34801561020b57600080fd5b50610214610663565b604051610221919061229d565b60405180910390f35b34801561023657600080fd5b50600d546102469062ffffff1681565b60405162ffffff9091168152602001610221565b34801561026657600080fd5b5061027a6102753660046122d0565b6106f5565b6040519015158152602001610221565b34801561029657600080fd5b506102be7f000000000000000000000000000000000000000000000000000000000000000081565b6040516001600160a01b039091168152602001610221565b3480156102e257600080fd5b506002545b604051908152602001610221565b34801561030157600080fd5b5061027a6103103660046122fa565b61070f565b34801561032157600080fd5b506101fd610330366004612336565b610733565b34801561034157600080fd5b5060125b60405160ff9091168152602001610221565b34801561036357600080fd5b5061027a6103723660046122d0565b6109dc565b34801561038357600080fd5b506102be7f000000000000000000000000000000000000000000000000000000000000000081565b3480156103b757600080fd5b506102be7f000000000000000000000000000000000000000000000000000000000000000081565b3480156103eb57600080fd5b506103456109fe565b34801561040057600080fd5b506102e761040f3660046122d0565b610a87565b34801561042057600080fd5b50600a546102be906001600160a01b031681565b34801561044057600080fd5b506101fd61044f36600461235d565b610ae0565b34801561046057600080fd5b506102e761046f36600461225e565b6001600160a01b031660009081526020819052604090205490565b34801561049657600080fd5b506101fd6110bb565b3480156104ab57600080fd5b506102be7f000000000000000000000000000000000000000000000000000000000000000081565b3480156104df57600080fd5b506009546001600160a01b03166102be565b3480156104fd57600080fd5b506102146110cf565b34801561051257600080fd5b506102e7610521366004612336565b6110de565b34801561053257600080fd5b5061027a6105413660046122d0565b611109565b34801561055257600080fd5b5061027a6105613660046122d0565b611184565b34801561057257600080fd5b506102e7600b5481565b6101fd61058a366004612336565b611192565b34801561059b57600080fd5b506102be7f000000000000000000000000000000000000000000000000000000000000000081565b3480156105cf57600080fd5b506102e7600c5481565b3480156105e557600080fd5b506102e76105f436600461237a565b6115b5565b34801561060557600080fd5b506101fd61061436600461225e565b6115e0565b34801561062557600080fd5b506101fd610634366004612336565b611656565b610641611663565b600a80546001600160a01b0319166001600160a01b0392909216919091179055565b606060038054610672906123ad565b80601f016020809104026020016040519081016040528092919081815260200182805461069e906123ad565b80156106eb5780601f106106c0576101008083540402835291602001916106eb565b820191906000526020600020905b8154815290600101906020018083116106ce57829003601f168201915b5050505050905090565b6000336107038185856116bd565b60019150505b92915050565b60003361071d8582856117e2565b61072885858561185c565b506001949350505050565b60007f00000000000000000000000000000000000000000000000000000000000000006001600160a01b0316634e69d5606040518163ffffffff1660e01b8152600401602060405180830381865afa158015610793573d6000803e3d6000fd5b505050506040513d601f19601f820116820180604052508101906107b791906123e7565b90508060ff166001036108e65760006107cf60025490565b6040516370a0823160e01b81523060048201527f00000000000000000000000000000000000000000000000000000000000000006001600160a01b0316906370a0823190602401602060405180830381865afa158015610833573d6000803e3d6000fd5b505050506040513d601f19601f82011682018060405250810190610857919061240a565b6108619085612439565b61086b9190612450565b90506108773384611a0b565b6108ab6001600160a01b037f0000000000000000000000000000000000000000000000000000000000000000163383611b46565b60405181815233907f884edad9ce6fa2440d8a54cc123490eb96d2768479d49ff9c7366125a9424364906020015b60405180910390a2505050565b8060ff166000036109d85760006108fc60025490565b6040516370a0823160e01b81523060048201527f00000000000000000000000000000000000000000000000000000000000000006001600160a01b0316906370a0823190602401602060405180830381865afa158015610960573d6000803e3d6000fd5b505050506040513d601f19601f82011682018060405250810190610984919061240a565b61098e9085612439565b6109989190612450565b90506109a43384611a0b565b6108ab6001600160a01b037f0000000000000000000000000000000000000000000000000000000000000000163383611b46565b5050565b6000336107038185856109ef83836115b5565b6109f99190612472565b6116bd565b60007f00000000000000000000000000000000000000000000000000000000000000006001600160a01b0316634e69d5606040518163ffffffff1660e01b8152600401602060405180830381865afa158015610a5e573d6000803e3d6000fd5b505050506040513d601f19601f82011682018060405250810190610a8291906123e7565b905090565b6001600160a01b038216600090815260056020526040812081908190610aae908590611ba9565b9150915081610ad5576001600160a01b038516600090815260208190526040902054610ad7565b805b95945050505050565b600a546001600160a01b0316331480610b0357506009546001600160a01b031633145b610b605760405162461bcd60e51b815260206004820152602360248201527f43616c6c6572206973206e6f7420746865206f70657261746f72206f72206f776044820152623732b960e91b60648201526084015b60405180910390fd5b8015610e14576040516370a0823160e01b81523060048201526000907f00000000000000000000000000000000000000000000000000000000000000006001600160a01b0316906370a0823190602401602060405180830381865afa158015610bcd573d6000803e3d6000fd5b505050506040513d601f19601f82011682018060405250810190610bf1919061240a565b60405163095ea7b360e01b81526001600160a01b037f000000000000000000000000000000000000000000000000000000000000000081166004830152602482018390529192507f00000000000000000000000000000000000000000000000000000000000000009091169063095ea7b3906044016020604051808303816000875af1158015610c85573d6000803e3d6000fd5b505050506040513d601f19601f82011682018060405250810190610ca99190612485565b5060408051610100810182526001600160a01b037f0000000000000000000000000000000000000000000000000000000000000000811682527f000000000000000000000000000000000000000000000000000000000000000081166020830152600d5462ffffff168284015230606083015242608083015260a08201849052600060c0830181905260e08301819052925163414bf38960e01b81529192917f00000000000000000000000000000000000000000000000000000000000000009091169063414bf38990610d819085906004016124a2565b6020604051808303816000875af1158015610da0573d6000803e3d6000fd5b505050506040513d601f19601f82011682018060405250810190610dc4919061240a565b604080518581526020810183905260019181019190915290915033907fb350355e4803dbba42f238d0b051df0d9112b142c280768d141236e0df1b006f906060015b60405180910390a250505050565b6040516370a0823160e01b81523060048201526000907f00000000000000000000000000000000000000000000000000000000000000006001600160a01b0316906370a0823190602401602060405180830381865afa158015610e7b573d6000803e3d6000fd5b505050506040513d601f19601f82011682018060405250810190610e9f919061240a565b60405163095ea7b360e01b81526001600160a01b037f000000000000000000000000000000000000000000000000000000000000000081166004830152602482018390529192507f00000000000000000000000000000000000000000000000000000000000000009091169063095ea7b3906044016020604051808303816000875af1158015610f33573d6000803e3d6000fd5b505050506040513d601f19601f82011682018060405250810190610f579190612485565b5060408051610100810182526001600160a01b037f0000000000000000000000000000000000000000000000000000000000000000811682527f000000000000000000000000000000000000000000000000000000000000000081166020830152600d5462ffffff168284015230606083015242608083015260a08201849052600060c0830181905260e08301819052925163414bf38960e01b81529192917f00000000000000000000000000000000000000000000000000000000000000009091169063414bf3899061102f9085906004016124a2565b6020604051808303816000875af115801561104e573d6000803e3d6000fd5b505050506040513d601f19601f82011682018060405250810190611072919061240a565b604080518581526020810183905260009181019190915290915033907fb350355e4803dbba42f238d0b051df0d9112b142c280768d141236e0df1b006f90606001610e06565b50565b6110c3611663565b6110cd6000611c9f565b565b606060048054610672906123ad565b60008060006110ee846006611ba9565b91509150816110ff57600254611101565b805b949350505050565b6000338161111782866115b5565b9050838110156111775760405162461bcd60e51b815260206004820152602560248201527f45524332303a2064656372656173656420616c6c6f77616e63652062656c6f77604482015264207a65726f60d81b6064820152608401610b57565b61072882868684036116bd565b60003361070381858561185c565b60006111a364e8d4a5100083612450565b90506111da6001600160a01b037f000000000000000000000000000000000000000000000000000000000000000016333084611cf1565b600b54341461122b5760405162461bcd60e51b815260206004820152601b60248201527f50726f746f636f6c20666565206973206e6f7420636f727265637400000000006044820152606401610b57565b6000612710600c543461123e9190612439565b6112489190612450565b905061125c6009546001600160a01b031690565b6001600160a01b03166108fc829081150290604051600060405180830381858888f19350505050158015611294573d6000803e3d6000fd5b50600a546001600160a01b03166108fc6112ae833461250b565b6040518115909202916000818181858888f193505050501580156112d6573d6000803e3d6000fd5b507f00000000000000000000000000000000000000000000000000000000000000006001600160a01b0316634e69d5606040518163ffffffff1660e01b8152600401602060405180830381865afa158015611335573d6000803e3d6000fd5b505050506040513d601f19601f8201168201806040525081019061135991906123e7565b60ff166001036115795760405163095ea7b360e01b81526001600160a01b037f000000000000000000000000000000000000000000000000000000000000000081166004830152602482018490527f0000000000000000000000000000000000000000000000000000000000000000169063095ea7b3906044016020604051808303816000875af11580156113f2573d6000803e3d6000fd5b505050506040513d601f19601f820116820180604052508101906114169190612485565b5060408051610100810182526001600160a01b037f0000000000000000000000000000000000000000000000000000000000000000811682527f000000000000000000000000000000000000000000000000000000000000000081166020830152600d5462ffffff168284015230606083015242608083015260a08201859052600060c0830181905260e08301819052925163414bf38960e01b81529192917f00000000000000000000000000000000000000000000000000000000000000009091169063414bf389906114ee9085906004016124a2565b6020604051808303816000875af115801561150d573d6000803e3d6000fd5b505050506040513d601f19601f82011682018060405250810190611531919061240a565b6040805186815260208101839052600181830152905191925033917fb350355e4803dbba42f238d0b051df0d9112b142c280768d141236e0df1b006f9181900360600190a250505b6115833384611d29565b60405183815233907fe1fffcc4923d04b559f4d29a8bfc6cda04eb5b0d3c460751c2402c5c5cc9109c906020016108d9565b6001600160a01b03918216600090815260016020908152604080832093909416825291909152205490565b6115e8611663565b6001600160a01b03811661164d5760405162461bcd60e51b815260206004820152602660248201527f4f776e61626c653a206e6577206f776e657220697320746865207a65726f206160448201526564647265737360d01b6064820152608401610b57565b6110b881611c9f565b61165e611663565b600b55565b6009546001600160a01b031633146110cd5760405162461bcd60e51b815260206004820181905260248201527f4f776e61626c653a2063616c6c6572206973206e6f7420746865206f776e65726044820152606401610b57565b6001600160a01b03831661171f5760405162461bcd60e51b8152602060048201526024808201527f45524332303a20617070726f76652066726f6d20746865207a65726f206164646044820152637265737360e01b6064820152608401610b57565b6001600160a01b0382166117805760405162461bcd60e51b815260206004820152602260248201527f45524332303a20617070726f766520746f20746865207a65726f206164647265604482015261737360f01b6064820152608401610b57565b6001600160a01b0383811660008181526001602090815260408083209487168084529482529182902085905590518481527f8c5be1e5ebec7d5bd14f71427d1e84f3dd0314c0f7b2291e5b200ac8c7c3b92591015b60405180910390a3505050565b60006117ee84846115b5565b9050600019811461185657818110156118495760405162461bcd60e51b815260206004820152601d60248201527f45524332303a20696e73756666696369656e7420616c6c6f77616e63650000006044820152606401610b57565b61185684848484036116bd565b50505050565b6001600160a01b0383166118c05760405162461bcd60e51b815260206004820152602560248201527f45524332303a207472616e736665722066726f6d20746865207a65726f206164604482015264647265737360d81b6064820152608401610b57565b6001600160a01b0382166119225760405162461bcd60e51b815260206004820152602360248201527f45524332303a207472616e7366657220746f20746865207a65726f206164647260448201526265737360e81b6064820152608401610b57565b61192d838383611df4565b6001600160a01b038316600090815260208190526040902054818110156119a55760405162461bcd60e51b815260206004820152602660248201527f45524332303a207472616e7366657220616d6f756e7420657863656564732062604482015265616c616e636560d01b6064820152608401610b57565b6001600160a01b03848116600081815260208181526040808320878703905593871680835291849020805487019055925185815290927fddf252ad1be2c89b69c2b068fc378daa952ba7f163c4a11628f55a4df523b3ef910160405180910390a3611856565b6001600160a01b038216611a6b5760405162461bcd60e51b815260206004820152602160248201527f45524332303a206275726e2066726f6d20746865207a65726f206164647265736044820152607360f81b6064820152608401610b57565b611a7782600083611df4565b6001600160a01b03821660009081526020819052604090205481811015611aeb5760405162461bcd60e51b815260206004820152602260248201527f45524332303a206275726e20616d6f756e7420657863656564732062616c616e604482015261636560f01b6064820152608401610b57565b6001600160a01b0383166000818152602081815260408083208686039055600280548790039055518581529192917fddf252ad1be2c89b69c2b068fc378daa952ba7f163c4a11628f55a4df523b3ef91016117d5565b505050565b6040516001600160a01b038316602482015260448101829052611b4190849063a9059cbb60e01b906064015b60408051601f198184030181529190526020810180516001600160e01b03166001600160e01b031990931692909217909152611e3c565b60008060008411611bf55760405162461bcd60e51b815260206004820152601660248201527504552433230536e617073686f743a20696420697320360541b6044820152606401610b57565b611bfd611f11565b841115611c4c5760405162461bcd60e51b815260206004820152601d60248201527f4552433230536e617073686f743a206e6f6e6578697374656e742069640000006044820152606401610b57565b6000611c588486611f1c565b84549091508103611c70576000809250925050611c98565b6001846001018281548110611c8757611c8761251e565b906000526020600020015492509250505b9250929050565b600980546001600160a01b038381166001600160a01b0319831681179093556040519116919082907f8be0079c531659141344cd1fd0a4f28419497f9722a3daafe3b4186f6b6457e090600090a35050565b6040516001600160a01b03808516602483015283166044820152606481018290526118569085906323b872dd60e01b90608401611b72565b6001600160a01b038216611d7f5760405162461bcd60e51b815260206004820152601f60248201527f45524332303a206d696e7420746f20746865207a65726f2061646472657373006044820152606401610b57565b611d8b60008383611df4565b8060026000828254611d9d9190612472565b90915550506001600160a01b038216600081815260208181526040808320805486019055518481527fddf252ad1be2c89b69c2b068fc378daa952ba7f163c4a11628f55a4df523b3ef910160405180910390a35050565b6001600160a01b038316611e1357611e0b82611fc9565b611b41611ffb565b6001600160a01b038216611e2a57611e0b83611fc9565b611e3383611fc9565b611b4182611fc9565b6000611e91826040518060400160405280602081526020017f5361666545524332303a206c6f772d6c6576656c2063616c6c206661696c6564815250856001600160a01b03166120099092919063ffffffff16565b9050805160001480611eb2575080806020019051810190611eb29190612485565b611b415760405162461bcd60e51b815260206004820152602a60248201527f5361666545524332303a204552433230206f7065726174696f6e20646964206e6044820152691bdd081cdd58d8d9595960b21b6064820152608401610b57565b6000610a8260085490565b81546000908103611f2f57506000610709565b82546000905b80821015611f7c576000611f498383612018565b60008781526020902090915085908201541115611f6857809150611f76565b611f73816001612472565b92505b50611f35565b600082118015611fa8575083611fa586611f9760018661250b565b600091825260209091200190565b54145b15611fc157611fb860018361250b565b92505050610709565b509050610709565b6001600160a01b038116600090815260056020908152604080832091839052909120546110b8919061203a565b61203a565b6110cd6006611ff660025490565b60606111018484600085612084565b60006120276002848418612450565b61203390848416612472565b9392505050565b6000612044611f11565b9050806120508461215f565b1015611b41578254600180820185556000858152602080822090930193909355938401805494850181558252902090910155565b6060824710156120e55760405162461bcd60e51b815260206004820152602660248201527f416464726573733a20696e73756666696369656e742062616c616e636520666f6044820152651c8818d85b1b60d21b6064820152608401610b57565b600080866001600160a01b031685876040516121019190612534565b60006040518083038185875af1925050503d806000811461213e576040519150601f19603f3d011682016040523d82523d6000602084013e612143565b606091505b5091509150612154878383876121a9565b979650505050505050565b8054600090810361217257506000919050565b815482906121829060019061250b565b815481106121925761219261251e565b90600052602060002001549050919050565b919050565b60608315612218578251600003612211576001600160a01b0385163b6122115760405162461bcd60e51b815260206004820152601d60248201527f416464726573733a2063616c6c20746f206e6f6e2d636f6e74726163740000006044820152606401610b57565b5081611101565b611101838381511561222d5781518083602001fd5b8060405162461bcd60e51b8152600401610b57919061229d565b80356001600160a01b03811681146121a457600080fd5b60006020828403121561227057600080fd5b61203382612247565b60005b8381101561229457818101518382015260200161227c565b50506000910152565b60208152600082518060208401526122bc816040850160208701612279565b601f01601f19169190910160400192915050565b600080604083850312156122e357600080fd5b6122ec83612247565b946020939093013593505050565b60008060006060848603121561230f57600080fd5b61231884612247565b925061232660208501612247565b9150604084013590509250925092565b60006020828403121561234857600080fd5b5035919050565b80151581146110b857600080fd5b60006020828403121561236f57600080fd5b81356120338161234f565b6000806040838503121561238d57600080fd5b61239683612247565b91506123a460208401612247565b90509250929050565b600181811c908216806123c157607f821691505b6020821081036123e157634e487b7160e01b600052602260045260246000fd5b50919050565b6000602082840312156123f957600080fd5b815160ff8116811461203357600080fd5b60006020828403121561241c57600080fd5b5051919050565b634e487b7160e01b600052601160045260246000fd5b808202811582820484141761070957610709612423565b60008261246d57634e487b7160e01b600052601260045260246000fd5b500490565b8082018082111561070957610709612423565b60006020828403121561249757600080fd5b81516120338161234f565b81516001600160a01b03908116825260208084015182169083015260408084015162ffffff16908301526060808401518216908301526080808401519083015260a0838101519083015260c0808401519083015260e09283015116918101919091526101000190565b8181038181111561070957610709612423565b634e487b7160e01b600052603260045260246000fd5b60008251612546818460208701612279565b919091019291505056fea26469706673582212200cae8648d77ba58521502d8f61da996db1fb320c981d6cd1ae2fc8ea527c225a64736f6c63430008110033",
  "devdoc": {
    "kind": "dev",
    "methods": {
      "allowance(address,address)": {
        "details": "See {IERC20-allowance}."
      },
      "approve(address,uint256)": {
        "details": "See {IERC20-approve}. NOTE: If `amount` is the maximum `uint256`, the allowance is not updated on `transferFrom`. This is semantically equivalent to an infinite approval. Requirements: - `spender` cannot be the zero address."
      },
      "balanceOf(address)": {
        "details": "See {IERC20-balanceOf}."
      },
      "balanceOfAt(address,uint256)": {
        "details": "Retrieves the balance of `account` at the time `snapshotId` was created."
      },
      "decimals()": {
        "details": "Returns the number of decimals used to get its user representation. For example, if `decimals` equals `2`, a balance of `505` tokens should be displayed to a user as `5.05` (`505 / 10 ** 2`). Tokens usually opt for a value of 18, imitating the relationship between Ether and Wei. This is the default value returned by this function, unless it's overridden. NOTE: This information is only used for _display_ purposes: it in no way affects any of the arithmetic of the contract, including {IERC20-balanceOf} and {IERC20-transfer}."
      },
      "decreaseAllowance(address,uint256)": {
        "details": "Atomically decreases the allowance granted to `spender` by the caller. This is an alternative to {approve} that can be used as a mitigation for problems described in {IERC20-approve}. Emits an {Approval} event indicating the updated allowance. Requirements: - `spender` cannot be the zero address. - `spender` must have allowance for the caller of at least `subtractedValue`."
      },
      "increaseAllowance(address,uint256)": {
        "details": "Atomically increases the allowance granted to `spender` by the caller. This is an alternative to {approve} that can be used as a mitigation for problems described in {IERC20-approve}. Emits an {Approval} event indicating the updated allowance. Requirements: - `spender` cannot be the zero address."
      },
      "name()": {
        "details": "Returns the name of the token."
      },
      "owner()": {
        "details": "Returns the address of the current owner."
      },
      "renounceOwnership()": {
        "details": "Leaves the contract without owner. It will not be possible to call `onlyOwner` functions. Can only be called by the current owner. NOTE: Renouncing ownership will leave the contract without an owner, thereby disabling any functionality that is only available to the owner."
      },
      "symbol()": {
        "details": "Returns the symbol of the token, usually a shorter version of the name."
      },
      "totalSupply()": {
        "details": "See {IERC20-totalSupply}."
      },
      "totalSupplyAt(uint256)": {
        "details": "Retrieves the total supply at the time `snapshotId` was created."
      },
      "transfer(address,uint256)": {
        "details": "See {IERC20-transfer}. Requirements: - `to` cannot be the zero address. - the caller must have a balance of at least `amount`."
      },
      "transferFrom(address,address,uint256)": {
        "details": "See {IERC20-transferFrom}. Emits an {Approval} event indicating the updated allowance. This is not required by the EIP. See the note at the beginning of {ERC20}. NOTE: Does not update the allowance if the current allowance is the maximum `uint256`. Requirements: - `from` and `to` cannot be the zero address. - `from` must have a balance of at least `amount`. - the caller must have allowance for ``from``'s tokens of at least `amount`."
      },
      "transferOwnership(address)": {
        "details": "Transfers ownership of the contract to a new account (`newOwner`). Can only be called by the current owner."
      }
    },
    "version": 1
  },
  "userdoc": {
    "kind": "user",
    "methods": {},
    "version": 1
  },
  "storageLayout": {
    "storage": [
      {
        "astId": 128,
        "contract": "contracts/Fund.sol:Fund",
        "label": "_balances",
        "offset": 0,
        "slot": "0",
        "type": "t_mapping(t_address,t_uint256)"
      },
      {
        "astId": 134,
        "contract": "contracts/Fund.sol:Fund",
        "label": "_allowances",
        "offset": 0,
        "slot": "1",
        "type": "t_mapping(t_address,t_mapping(t_address,t_uint256))"
      },
      {
        "astId": 136,
        "contract": "contracts/Fund.sol:Fund",
        "label": "_totalSupply",
        "offset": 0,
        "slot": "2",
        "type": "t_uint256"
      },
      {
        "astId": 138,
        "contract": "contracts/Fund.sol:Fund",
        "label": "_name",
        "offset": 0,
        "slot": "3",
        "type": "t_string_storage"
      },
      {
        "astId": 140,
        "contract": "contracts/Fund.sol:Fund",
        "label": "_symbol",
        "offset": 0,
        "slot": "4",
        "type": "t_string_storage"
      },
      {
        "astId": 805,
        "contract": "contracts/Fund.sol:Fund",
        "label": "_accountBalanceSnapshots",
        "offset": 0,
        "slot": "5",
        "type": "t_mapping(t_address,t_struct(Snapshots)800_storage)"
      },
      {
        "astId": 808,
        "contract": "contracts/Fund.sol:Fund",
        "label": "_totalSupplySnapshots",
        "offset": 0,
        "slot": "6",
        "type": "t_struct(Snapshots)800_storage"
      },
      {
        "astId": 811,
        "contract": "contracts/Fund.sol:Fund",
        "label": "_currentSnapshotId",
        "offset": 0,
        "slot": "8",
        "type": "t_struct(Counter)2056_storage"
      },
      {
        "astId": 7,
        "contract": "contracts/Fund.sol:Fund",
        "label": "_owner",
        "offset": 0,
        "slot": "9",
        "type": "t_address"
      },
      {
        "astId": 3680,
        "contract": "contracts/Fund.sol:Fund",
        "label": "operator",
        "offset": 0,
        "slot": "10",
        "type": "t_address"
      },
      {
        "astId": 3683,
        "contract": "contracts/Fund.sol:Fund",
        "label": "protocolFee",
        "offset": 0,
        "slot": "11",
        "type": "t_uint256"
      },
      {
        "astId": 3686,
        "contract": "contracts/Fund.sol:Fund",
        "label": "devPercentage",
        "offset": 0,
        "slot": "12",
        "type": "t_uint256"
      },
      {
        "astId": 3689,
        "contract": "contracts/Fund.sol:Fund",
        "label": "poolFee",
        "offset": 0,
        "slot": "13",
        "type": "t_uint24"
      }
    ],
    "types": {
      "t_address": {
        "encoding": "inplace",
        "label": "address",
        "numberOfBytes": "20"
      },
      "t_array(t_uint256)dyn_storage": {
        "base": "t_uint256",
        "encoding": "dynamic_array",
        "label": "uint256[]",
        "numberOfBytes": "32"
      },
      "t_mapping(t_address,t_mapping(t_address,t_uint256))": {
        "encoding": "mapping",
        "key": "t_address",
        "label": "mapping(address => mapping(address => uint256))",
        "numberOfBytes": "32",
        "value": "t_mapping(t_address,t_uint256)"
      },
      "t_mapping(t_address,t_struct(Snapshots)800_storage)": {
        "encoding": "mapping",
        "key": "t_address",
        "label": "mapping(address => struct ERC20Snapshot.Snapshots)",
        "numberOfBytes": "32",
        "value": "t_struct(Snapshots)800_storage"
      },
      "t_mapping(t_address,t_uint256)": {
        "encoding": "mapping",
        "key": "t_address",
        "label": "mapping(address => uint256)",
        "numberOfBytes": "32",
        "value": "t_uint256"
      },
      "t_string_storage": {
        "encoding": "bytes",
        "label": "string",
        "numberOfBytes": "32"
      },
      "t_struct(Counter)2056_storage": {
        "encoding": "inplace",
        "label": "struct Counters.Counter",
        "members": [
          {
            "astId": 2055,
            "contract": "contracts/Fund.sol:Fund",
            "label": "_value",
            "offset": 0,
            "slot": "0",
            "type": "t_uint256"
          }
        ],
        "numberOfBytes": "32"
      },
      "t_struct(Snapshots)800_storage": {
        "encoding": "inplace",
        "label": "struct ERC20Snapshot.Snapshots",
        "members": [
          {
            "astId": 796,
            "contract": "contracts/Fund.sol:Fund",
            "label": "ids",
            "offset": 0,
            "slot": "0",
            "type": "t_array(t_uint256)dyn_storage"
          },
          {
            "astId": 799,
            "contract": "contracts/Fund.sol:Fund",
            "label": "values",
            "offset": 0,
            "slot": "1",
            "type": "t_array(t_uint256)dyn_storage"
          }
        ],
        "numberOfBytes": "64"
      },
      "t_uint24": {
        "encoding": "inplace",
        "label": "uint24",
        "numberOfBytes": "3"
      },
      "t_uint256": {
        "encoding": "inplace",
        "label": "uint256",
        "numberOfBytes": "32"
      }
    }
  }
}